:020000040800F2
:10000000F807002029020008FD110008F51100087A
:10001000F911000835030008FD1600080000000073
:1000200000000000000000000000000005120008B1
:10003000390300080000000001120008091200083E
:10004000430200084302000843020008430200087C
:10005000430200084302000843020008430200086C
:10006000430200084302000843020008430200085C
:10007000430200084302000843020008430200084C
:10008000430200084302000843020008430200083C
:10009000430200084302000843020008430200082C
:1000A000430200084302000843020008430200081C
:1000B0004302000843020008000000004302000859
:1000C0004302000800000000000000004302000896
:1000D0000000000043020008430200084302000839
:1000E0004302000843020008000000000000000076
:1000F0000000000000000000000000000000000000
:1001000000000000000000000000000000000000EF
:100110000000000000000000430200084302000845
:1001200000000000000000000000000000000000CF
:1001300000000000000000000000000000000000BF
:100140004302000843020008000000000000000015
:10015000000000000000000000000000000000009F
:10016000000000000000000000000000000000008F
:10017000000000000000000000000000000000007F
:10018000000000004302000800F002F800F03CF814
:100190000AA090E8000C82448344AAF10107DA45E2
:1001A00001D100F031F8AFF2090EBAE80F0013F0F8
:1001B000010F18BFFB1A43F001031847EC170000AA
:1001C0000C180000103A24BF78C878C1FAD852073A
:1001D00024BF30C830C144BF04680C6070470000C1
:1001E0000023002400250026103A28BF78C1FBD840
:1001F000520728BF30C148BF0B6070471FB501F0E0
:10020000AAFB1FBD10B510BD00F058F81146FFF74E
:10021000F5FF01F075FA00F076F803B4FFF7F2FF8E
:1002200003BC00F07FF800000948804709480047F8
:10023000FEE7FEE7FEE7FEE7FEE7FEE7FEE7FEE796
:10024000FEE7FEE704480549054A064B70470000F3
:10025000A112000889010008F8010020F807002019
:10026000F8030020F80300204FF0000200B5134609
:1002700094469646203922BFA0E80C50A0E80C50C6
:10028000B1F12001BFF4F7AF090728BFA0E80C5077
:1002900048BF0CC05DF804EB890028BF40F8042B70
:1002A00008BF704748BF20F8022B11F0804F18BFDD
:1002B00000F8012B7047704770477047754600F093
:1002C0002BF8AE4605006946534620F007008546E8
:1002D00018B020B5FFF7B6FFBDE820404FF000068C
:1002E0004FF000074FF000084FF0000BAC46ACE8B1
:1002F000C009ACE8C009ACE8C009ACE8C00921F00D
:1003000007018D46704710B50446AFF300802046C4
:10031000BDE81040FFF781BF004870471000002083
:100320007047000001491820ABBEFEE7260002001E
:10033000FEE70000FEE70000704700002DE9F04FE7
:1003400082B00D68002D00F0D18040F2004C40F6E4
:100350000042C4F2010CC4F60002052300244FF051
:10036000030800274FF0000A904208BF03230093C0
:1003700045E04FF0010B04F00C030F269E402EEADF
:1003800006060BFA03F34FEA9A02334345F822308C
:10039000DCF808204B6842EA090640F20C4EDD0208
:1003A00058BF22EA0906CCF80860C4F2010EDEF854
:1003B00000209D0242EA090658BF22EA0906CEF84B
:1003C0000060DCF804209D0342EA090658BF22EAD7
:1003D0000906CCF80460DCF80020DB0342EA0906D9
:1003E00058BF22EA0906CCF800600D680AF1010A3C
:1003F00035FA0AF207F1020704F1040476D001226B
:1004000002FA0AF215EA0209EFD04E6806F0030577
:100410006B1E012B13D8D0F808E0CB6808FA07FB55
:100420002EEA0B0EBB4043EA0E038360436823EAC7
:100430000202C6F3001303FA0AF31A434260032DC3
:100440001CD0C2688E6808FA07F39A4306FA07F3CD
:100450001A43022DC26011D16FF0030202EA5A0260
:10046000024404F01C060F23D2F820E003FA06F53C
:100470000B692EEA0505B3402B43136202684E68F0
:1004800008FA07F39A4306F00303BB401A4316F435
:10049000403F0260A9D041F21803C4F202031A6877
:1004A000ACF57E7542F001021A601A68B0F1904F07
:1004B00002F001020192019A2AF0030255F802E0CB
:1004C00011D040F20042C4F6000290423FF451AF16
:1004D00040F60002C4F60002DDF800B0904208BF0A
:1004E0004FF0020B47E74FF0000B44E702B0BDE8C6
:1004F000F08F00001823002A08BF2823C15070473E
:1005000040F2F410C2F200000068704740F20400AC
:1005100040F2F411C2F20000C2F2000100780A6851
:10052000104408607047000080B542F20000C4F239
:100530000200016841F010010160032000F076F82C
:100540000F2000F005F800F02BF8002080BD00001F
:10055000B0B540F20402C2F2000240F2000112788B
:10056000C2F200014FF47A730968B3FBF2F2044659
:10057000B1FBF2F1084600F03BFC0F2C4FF00105F7
:100580000CD858B94FF0FF3021460022002500F06A
:1005900021F840F20800C2F2000004602846B0BD15
:1005A00082B041F21800C4F20200016841F001017A
:1005B0000160016801F0010101910199416841F078
:1005C00080514160406800F080500090009802B077
:1005D0007047000010B54EF60C5CCEF2000CDCF853
:1005E0000030C3F3022E8EF00704042C28BF04242D
:1005F000BEF103034FF0FF3E0EFA04F438BF0023B0
:10060000A14399400EFA03F39A43114300F160426B
:1006100000F00F03090102F56442043B6344002823
:1006200048BF03F10C02117010BD00004EF60C51D2
:10063000CEF200010A684FF6FF031A4060F30A2267
:1006400042F0806040F0FD70086070472DE9F04195
:1006500082B00446807841F21C06C007C4F202064C
:100660004AD0306810F0805808D1306840F080508F
:100670003060306800F080500190019847F2000728
:10068000C4F200073868C00512D4386840F480709E
:100690003860FFF735FF05463868C00508D4FFF716
:1006A0002FFF401B6428F7D9032002B0BDE8F0817A
:1006B000706810F4407012D0616801F44071884293
:1006C0000DD0706840F24042C4F24222012320F46F
:1006D000407113600023C007136071603BD17068E4
:1006E000616820F440700843B8F1000F706003D1D6
:1006F000306820F0805030602068C10709D1810641
:100700000FD4010615D4C0041BD4002002B0BDE8EC
:10071000F0817169A26821F00301114371618106C2
:10072000EFD57169E26821F0100111437161010692
:10073000E9D53169226921F4F87111433161C004AE
:10074000E3D57069616920F480700843706100200E
:1007500002B0BDE8F081FFF7D3FE054641F28837CD
:1007600070688007BBD4FFF7CBFE401BB8424FF048
:100770000300F5D9ECE700002DE9F04381B0002833
:1007800076D042F20008C4F202080446D8F800000D
:100790000D4600F0070088420CD2D8F8000020F087
:1007A00007002843C8F80000D8F8000000F0070050
:1007B000A8425DD1206841F204098107C4F2020910
:1007C00007D5D9F80010A26821F0F0011143C9F84B
:1007D0000010C00743D1D8F8000000F00700A8427D
:1007E0000CD9D8F8000020F007002843C8F8000012
:1007F000D8F8000000F00700A84239D1206841076E
:1008000007D5D9F80010E26821F4E0611143C9F876
:100810000010000708D5D9F80000216920F46050C5
:1008200040EAC100C9F80000D9F8002002F00C002D
:10083000082841F20020C0F27A004DD141F6881319
:10084000C2F38341C0F60003595CD9F82830D203C3
:1008500038D440F60010C0F23D0048433CE06068E8
:10086000022809D0012828D159F8041C890307D48B
:10087000012001B0BDE8F08359F8041C8901F7D5C7
:10088000D9F8001021F003010843C9F80000FFF770
:1008900037FE064641F28837D9F80000616800F05B
:1008A0000C00B0EB810F96D0FFF72AFE801BB842F8
:1008B000F2D9032001B0BDE8F08359F8041C890780
:1008C000D6D5DDE703F00F0241F69813C0F600031A
:1008D0009A5CB0FBF2F04843D9F8001041F6701270
:1008E000C1F30311C0F60002515C40F2000220FA8D
:1008F00001F140F20800C2F200000068C2F20002FA
:100900001160FFF725FE002001B0BDE8F083000074
:1009100040F2000041F20401C2F20000C4F2020100
:100920000068096841F68012C1F30221C0F6000296
:10093000515CC8407047000041F2040CC4F2020C44
:10094000DCF8003003F00C00082841F20020C0F26F
:100950007A0018BF704741F68811C3F38342C0F68E
:1009600000018A5CDCF82810DB0305D440F6001097
:10097000C0F23D005043704741F6981301F00F015B
:10098000C0F60003595CB0FBF1F050437047000023
:100990002DE9F04182B0002800F08F8004460078F5
:1009A00041F20006C007C4F202064BD0706800F0A6
:1009B0000C00042806D13068800343D56068002805
:1009C00040D17AE0706800F00C00082802D170680D
:1009D000C003F0D465682DB1B5F5A02F0AD0B5F5E8
:1009E000803F0BD0306820F480303060306820F4D5
:1009F000802006E0306840F480203060306840F4A9
:100A000080303060F06AA16820F00F000843F06287
:100A1000FFF776FD002D054611D000BF306880033A
:100A200010D4FFF76DFD401B6428F7D908E100BF23
:100A3000FFF766FD401B64284FF003003AD830688A
:100A40008003F5D42078800718D5706810F00C0F5B
:100A500007D0706800F00C0008286CD17068C003E3
:100A600069D43068800702D52069012825D1306813
:100A7000616920F0F80040EAC1003060207800078A
:100A80001FD42078400732D4E56995B1706800F032
:100A90000C00082840F08880012D0ED07068216A73
:100AA00000F480328A4208D1616A00F470108842F2
:100AB00003D1002002B0BDE8F081012002B0BDE802
:100AC000F081A06900285BD00020C4F242200121FF
:100AD000C0F88014FFF714FD054600BF706A800758
:100AE000CFD4FFF70DFD401B0228F7D9A8E0F0692D
:100AF00010F0805808D1F06940F08050F061F06942
:100B000000F080500190019847F20007C4F20007FE
:100B10003868C00526D4386840F480703860FFF724
:100B2000EFFC05463868C0051CD4FFF7E9FC401B04
:100B30006428F7D984E02069002840F20000C4F25C
:100B4000422053D001210160FFF7DAFC054600BFC7
:100B5000306880073FF58BAFFFF7D2FC401B0228BF
:100B6000F6D96DE0E5681DB1052D51D0012D53D0AA
:100B7000306A20F001003062306A20F004004EE05C
:100B80000020C4F242200021C0F88014FFF7B8FC16
:100B9000054600BF706A80077FF573AFFFF7B0FCB2
:100BA000401B0228F6D94BE00027C4F24227002060
:100BB0003866FFF7A5FC022D05460BD13068800191
:100BC00056D5FFF79DFC401B02284FF00300F5D9D6
:100BD00070E700BF306880017FF56BAFFFF790FCD6
:100BE000401B02284FF00300F4D963E700210160A5
:100BF000FFF786FC054600BF306880077FF53EAFF3
:100C0000FFF77EFC401B02284FF00300F4D951E7A8
:100C1000306A40F004003062306A40F00100306217
:100C2000FFF76EFC002D054641F2883714D000BF57
:100C3000306A800713D4FFF763FC401BB842F7D932
:100C4000032002B0BDE8F081FFF75AFC401BB84218
:100C50004FF003003FF62EAF306A8007F4D4B8F1AE
:100C6000000F7FF411AFF06920F08050F0610BE7C6
:100C70007068D4E9082120F47410084310437060B0
:100C800001203866FFF73CFC044600BF3068800155
:100C90003FF50FAFFFF734FC001B02284FF00300B5
:100CA000F4D907E7002804BF01207047B0B5044617
:100CB000406A20B10020206104F1140005E0606862
:100CC000B0F5827F03D004F11C00002101600025F3
:100CD000A56294F85D0020B9204684F85C5000F0CD
:100CE0004FF8022084F85D002068D4F80CE0026818
:100CF000BEF5E06F22F0400202604EF4006298BF41
:100D00000125B2F5706F1CBF0023A3624FEA053CBA
:100D1000D4E90135D4E9042103F4827305F40445D0
:100D20002B4402F002021A44A36901F00101E569B3
:100D3000114403F40072114405F03802256A11448D
:100D400005F08002A56A114405F4005211430160C8
:100D50000421626A0EF4706501EA1341636B45EA8F
:100D60000C0502F01002294303F008031143194354
:100D7000416000200121206684F85D10B0BD0000B4
:100D800080B586B0006843F20002C4F2010200217F
:100D90009042CDE90411CDE90211019101D006B0D4
:100DA00080BD41F21400C4F20200426842F4805255
:100DB0004260426802F480520092009A026842F453
:100DC00000320260006800F4003000900098E020DB
:100DD00001900220CDE90201032004900520059036
:100DE00001A94FF09040FFF7A9FA06B080BD0000BE
:100DF000411E0020B0EB116F1CBF012070474EF266
:100E00001002CEF2000251604EF62351CEF20001E4
:100E1000F0230B70072190601160704710B590F8B7
:100E20003C20012A4FF002023AD0012380F83C30E6
:100E300080F83D20026842F6004C5368D2F808E082
:100E4000C4F2010C624503D14C6823F470032343C0
:100E50000C6823F07003234342F6FF34C4F201040C
:100E6000A242536009DCB2F1804F0ED040F2004341
:100E7000C4F200039A4208D00CE044F20003C4F22A
:100E800001039A4201D0624504D189682EF08003A3
:100E9000194391600121002280F83D1080F83C2028
:100EA000104610BD002804BF012070472DE9F04F07
:100EB00081B0044690F83D00894628B9002084F8A6
:100EC0003C00204600F0A4F8022084F83D00206891
:100ED0004BF6F8728168CFF6FE72114081600168AE
:100EE000B0F1804F0BD042F60042C4F201029042B2
:100EF00005D040F20042C4F20002904203D1A26841
:100F000021F07001114343F6FF72C4F201029042D6
:100F10000BDCB0F1804F1AD040F20042C4F2000264
:100F2000904214D042F600420DE044F20002C4F2B6
:100F3000010290420BD044F60002C4F2010290423A
:100F400005D044F20042C4F20102904203D122696A
:100F500021F440711143A36921F080011943D4F8B1
:100F600004C0E2680160A0F18041A1F596314FEA2A
:100F7000B1210729C262C0F828C007D8012202FAAD
:100F800001F111F0E10F1CBF6169016301214161B1
:100F90008268D0F818E0D0F820C0D9E90038D9E943
:100FA000027B43EA020AD9F818304FF6FF722EEAA4
:100FB000020E47EA03234FF6FC47BB43D9E9077209
:100FC0004BEA0E05D9F810602B4343EA072343EAA6
:100FD000061343EA02322CF0AA03D9F8147043EA4C
:100FE000080343EA0713C0F808A08261036284F88B
:100FF000481084F83E1084F83F1084F8441084F8B8
:10100000451084F83D10002001B0BDE8F08F0000CD
:1010100070B586B0006840F20041C4F200010024BF
:101020008842CDE90444CDE90244019424D0B0F1D2
:10103000804F58D141F21400C4F20200816841F09F
:1010400001018160816801F001010091009901684E
:1010500041F400310160006800F400300090009815
:1010600003200190022002900020CDE9030001201E
:1010700005904FF0904033E041F21400C4F20200BA
:101080008168102541F0020181608168022601F02B
:10109000020100910099016841F40031016001688A
:1010A00001F4003100910099016841F48021016050
:1010B000006801A900F48020009000984FF0904053
:1010C0000195CDE90264CDE90446FFF737F940F216
:1010D0000040C4F60000CDE90156CDE90344059671
:1010E00001A9FFF72BF906B070BD000010B5A0B143
:1010F0000446C06F28B9002084F87800204600F02C
:1011000025F82420E0672068016821F001010160D2
:10111000204600F0A1F9012801D1012010BD606A2C
:1011200010B1204600F0C6F82168486820F49040CD
:101130004860886820F02A008860086840F0010252
:1011400020460A60BDE8104000F028B92DE9F041C2
:1011500086B0006843F60001C4F201010025884210
:10116000CDE90455CDE90255019502D006B0BDE8A0
:10117000F08141F21400C4F20200416801AC41F474
:101180008041416041684FF0020801F480410091C4
:1011900000990168032741F40031016001680726C6
:1011A00001F4003100910099016841F4802101604F
:1011B0000068214600F48020009000984FF40070F1
:1011C00001904FF09040CDE9028504970596FFF716
:1011D000B5F88020CDE9010840F20040C4F60000D7
:1011E0002146CDE903570596FFF7A8F806B0BDE8FC
:1011F000F0810000FEE70000FEE70000FEE70000CF
:101200007047000070470000FFF780B970B596B0D6
:101210000CAC20462821FFF727F801200C901090F5
:101220004FF4E01000254FF480310226159020463F
:101230000B95CDE90955CDE90755CDE90555CDE922
:101240000355CDE90155CDE90D15CDE91361FFF742
:101250009FFB20B1EFF3108072B600BFFEE70F20B6
:10126000CDE907064FF48060CDE90A0507A8022101
:101270000995FFF781FA20B1EFF3108072B600BF35
:10128000FEE7012001900020039001A8FFF7DEF99E
:1012900018B1EFF3108072B6FEE716B070BD000013
:1012A0004EF68850CEF20000016841F470010160F2
:1012B0007047000080B5416ACA070CD18A0715D46F
:1012C0004A071ED40A0727D4CA0630D48A0639D45E
:1012D0004A0657D541E00268D0F828C0536823F485
:1012E000003343EA0C0353608A07E9D50268D0F85B
:1012F0002CC0536823F4803343EA0C0353604A073D
:10130000E0D50268D0F830C0536823F4802343EA64
:101310000C0353600A07D7D50268D0F834C053686D
:1013200023F4004343EA0C035360CA06CED5026897
:10133000D0F838C0936823F4805343EA0C039360D9
:101340008A06C5D50268D0F83CC0936823F40053E0
:1013500043EA0C0393604A0614D50268D0F840C0F3
:101360005368BCF5801F23F4801343EA0C035360D9
:1013700008D1D2F804C0D0F844E02CF4C00343EA0A
:101380000E035360090658BF80BD0168806C4A682F
:1013900022F400221043486080BD0000B0B582B046
:1013A00004460020C4F88400FFF7AAF82168054627
:1013B000096809071AD56FF07E4C20464FF40011DA
:1013C00000222B46CDF800C000F0FCF870B100BF41
:1013D000206850E8000F216820F0800041E80002FA
:1013E000002AF5D12020E06703202FE02068006864
:1013F000400724D56FF07E4C20464FF48001002238
:101400002B46CDF800C000F0DDF8C0B1206850E8F0
:10141000000F216820F4907041E80002002AF5D105
:10142000206850E8020F216820F0010041E8020224
:10143000002AF5D12020C4F88000032006E02020F7
:10144000E067C4F88000002020666066002184F810
:10145000781002B0B0BD0000B0B5044602688068E4
:1014600004F10C052ACD184340EA0503D4F81CC04A
:10147000156846F6F310CEF6FF702840184340EA90
:101480000C001060506820F4405008435060A06980
:10149000216A9368084323F430610843906044F262
:1014A0000040C4F2000082424FF0000117D044F621
:1014B0000000C4F20000824211D043F60000C4F2E2
:1014C000010082420AD141F23000C4F202000068F9
:1014D00038A100F0030051F8201000E0102141F283
:1014E0000020BCF5004FC0F27A000ED108291BD8AD
:1014F0000025DFE801F0051920191D19191936001A
:101500000025FFF705FAB8B94FE008292FD80025C4
:10151000DFE801F0052D342D312D2D2D460000255D
:10152000FFF7F6F958BB40E00020012520B93CE068
:101530000025FFF701FAC0B361684A0802EB4000DA
:10154000B0FBF1F04FF6EF72A0F11001914206D816
:101550004FF6F0710140C0F3420008441BE0012542
:1015600023E04FF4004000250028E5D11DE00020D5
:10157000012520B919E00025FFF7DEF9A8B161685F
:101580004FF6EF7200EB5100B0FBF1F0A0F110014B
:10159000914203D880B22168C86006E0012504E0CA
:1015A0004FF4004000250028E9D100212846A1661B
:1015B000E166B0BD0000000004000000080000006B
:1015C000020000002DE9F04381B004460068C069C4
:1015D0000840401AB0FA80F04009904251D1DDF83D
:1015E000208015460E46994608F1010709E000BF24
:1015F0002068C0693040801BB0FA80F04009A842E2
:1016000043D1002FF4D0FEF77BFF0146B8F1000F65
:101610004FF003003AD0A1EB0901414536D82068CC
:1016200001684907E4D5C169090732D4C1690905D0
:10163000DED54FF400610162206850E8000F216898
:1016400020F4907041E80002002AF5D1206850E8AB
:10165000020F216820F0010041E80202002AF5D1C2
:10166000206E01280AD100BF206850E8000F2168D1
:1016700020F0100041E80002002AF5D103202021CB
:101680002EE0002001B0BDE8F083002001B0BDE8ED
:10169000F0830821016200BF206850E8000F216834
:1016A00020F4907041E80002002AF5D1206850E84B
:1016B000020F216820F0010041E80202002AF5D162
:1016C000206E01280AD100BF206850E8000F216871
:1016D00020F0100041E80002002AF5D10120082185
:1016E0002022C4F8802000222266A266C4F884105A
:1016F00084F8782001B0BDE8F0830000FEE7000028
:101700008CB040F20048C4F20008FEF70DFFFFF76E
:101710007DFD002741F214000797CDE90577CDE95B
:101720000377C4F20200016840F2004441F4002152
:1017300001600168C4F6000401F4002100910099E1
:10174000016804F5806641F48001016001680022AF
:1017500001F480010091009901684FF4005541F4B3
:1017600000310160016801F40031009100990168C5
:1017700041F48021016000684FF4005100F48020A2
:10178000009000983046FEF7B5FE20464DF262719B
:1017900000224DF2627AFEF7ADFE039503AD4FF0E5
:1017A000010930462946CDE904970697FEF7C6FDA4
:1017B00041F60C40CDE903074FF0904029460597CC
:1017C000FEF7BCFD42F60100CDE90307204629469D
:1017D0000597FEF7B3FD20462946CDE903A9CDE9DB
:1017E0000577FEF7ABFD042003900320CDE9040745
:1017F00020462946FEF7A2FD40F2700008F596311A
:10180000C2F200004FF482724FF4E0634FF40076AE
:10181000102580E8860007210822C0E90337C0E9C7
:101820000576C561C0E90877C0E90A71C0E90C72A4
:10183000FFF738FA18B1EFF3108072B6FEE703AC89
:1018400020462421FEF710FD40F2D400C2F2000031
:101850004FF080414FF0FF32C0E900172146029758
:10186000CDE90077C0E9027207618761CDE903978E
:10187000CDE90597CDE90777CDE909970B97FFF7F4
:1018800011FB20B1EFF3108072B600BFFEE740F20B
:10189000D4000025C2F20000694600950295FFF7CA
:1018A000BDFA20B1EFF3108072B600BFFEE703ACC3
:1018B00020462421FEF7D8FC40F22010C2F200009E
:1018C0004FF6FF71C0E902510121CDE90315CDE9C1
:1018D0000515CDE9091521460295CDE90055C0E968
:1018E000008505618561CDE907550B95FFF7DAFAAB
:1018F00018B1EFF3108072B6FEE740F2201000241A
:10190000C2F20000694600940294FFF787FA20B102
:10191000EFF3108072B600BFFEE740F26C1008F5DE
:101920009A31C2F200000C234FF4164280E81600F0
:10193000C0E90344C0E90534C0E907444462FFF745
:10194000D5FB20B1EFF3108072B600BFFEE7FEF7C3
:10195000EFFC00BFFEE7F1EE100A4FF6FF71C0F298
:10196000C03120EA010040F04070E1EE100A7047FB
:10197000000000000000000001020304060708093F
:101980000000000001020304020304050607080921
:101990000A0B0C0D0E0F10100102030405060708B8
:1019A000090A0B0C0D0E0F10C819000800000020CA
:1019B00010000000C4010008D81900081000002021
:1019C000E8070000E001000800127A0001000000B2
:0819D0001000000000000000FF
:040000050800018965
:00000001FF
