:020000040800F2
:10000000F8070020290200085112000849120008D0
:100010004D120008F9020008F9180008000000005D
:10002000000000000000000000000000591200085D
:10003000FD02000800000000551200085D120008D3
:10004000430200084302000843020008430200087C
:10005000430200084302000843020008430200086C
:10006000430200084302000843020008430200085C
:10007000430200084302000843020008430200084C
:10008000430200084302000843020008430200083C
:10009000430200084302000843020008430200082C
:1000A000430200084302000843020008430200081C
:1000B0004302000843020008000000004302000859
:1000C0004302000800000000000000004302000896
:1000D0000000000043020008430200084302000839
:1000E0004302000843020008000000000000000076
:1000F0000000000000000000000000000000000000
:1001000000000000000000000000000000000000EF
:100110000000000000000000430200084302000845
:1001200000000000000000000000000000000000CF
:1001300000000000000000000000000000000000BF
:100140004302000843020008000000000000000015
:10015000000000000000000000000000000000009F
:10016000000000000000000000000000000000008F
:10017000000000000000000000000000000000007F
:10018000000000004302000800F002F800F03CF814
:100190000AA090E8000C82448344AAF10107DA45E2
:1001A00001D100F031F8AFF2090EBAE80F0013F0F8
:1001B000010F18BFFB1A43F001031847501A000043
:1001C000701A0000103A24BF78C878C1FAD85207D4
:1001D00024BF30C830C144BF04680C6070470000C1
:1001E0000023002400250026103A28BF78C1FBD840
:1001F000520728BF30C148BF0B6070471FB501F0E0
:10020000DCFC1FBD10B510BD00F031F81146FFF742
:10021000F5FF01F073FB00F04FF803B4FFF7F2FFB6
:1002200003BC00F057F80000094880470948004720
:10023000FEE7FEE7FEE7FEE7FEE7FEE7FEE7FEE796
:10024000FEE7FEE704480549054A064B70470000F3
:100250006112000889010008F8010020F807002059
:10026000F8030020F8030020704770477047754678
:1002700000F02CF8AE4605006946534620F0070012
:10028000854618B020B5FFF7DDFFBDE820404FF0F0
:1002900000064FF000074FF000084FF0000BAC468F
:1002A000ACE8C009ACE8C009ACE8C009ACE8C009DA
:1002B00021F007018D46704710B50446AFF300806A
:1002C0002046BDE81040FFF7A8BF00000048704777
:1002D0001000002001491820ABBEFEE726000200F6
:1002E000704700004FF09040012100F0FBF84FF400
:1002F0007A7000F005F8F5E7FEE7000070470000AF
:10030000B0B5044600F0FCF8054640F20000C2F229
:1003100000000078611C18BF044400BF00F0F0F832
:10032000401BA042FAD3B0BD2DE9F04F82B00F6858
:10033000002F00F0D38040F2004C40F60042C4F29F
:10034000010CC4F600020523002400264FF0000A29
:10035000904208BF0323009344E000BF012206F04F
:100360000C050F27AF402EEA0707AA404FEA9A0371
:100370003A4349F82320DCF808204B6842EA080792
:1003800040F20C4EDD0258BF22EA0807CCF8087094
:10039000C4F2010EDEF800209D0242EA080758BFB1
:1003A00022EA0807CEF80070DCF804209D0342EA38
:1003B000080758BF22EA0807CCF80470DCF80020D0
:1003C000DB0342EA080758BF22EA0807CCF80070AE
:1003D0000F680AF1010A37FA0AF206F1040604F17D
:1003E00002047BD0012202FA0AF517EA0508EFD0D1
:1003F000D1F804E003230EF0030BABF1010203FA82
:1004000004F7012A6FEA070910D88268CF6802EA68
:100410000902A7403A4382604268AA43CEF300151E
:1004200005FA0AF52A43426006E000BFBBF1030F5C
:1004300002D14FF0030B1EE0C2688D6802EA090288
:10044000A5402A43BBF1020FC26014D16FF0030232
:1004500002EA5A020244D2F820E006F01C050F23FB
:100460000F69AB402EEA0303AF403B431362D1F860
:1004700004E00EF0030B02680BFA04F302EA09022F
:100480001A431EF4403F0260A2D041F21803C4F2A6
:1004900002031A68ACF57E7942F001021A601A680C
:1004A000B0F1904F02F001020192019A2AF003028A
:1004B00059F802E010D040F20042C4F60002904227
:1004C0003FF44CAF40F60002C4F600029042009A9E
:1004D00008BF022243E700BF002240E702B0BDE8A8
:1004E000F08F0000426902EA0103914341EA0341AF
:1004F000816170471823002A08BF2823C150704724
:1005000040F2F410C2F200000068704740F20000B0
:1005100040F2F411C2F20000C2F2000100780A6851
:10052000104408607047000080B542F20000C4F239
:100530000200016841F010010160032000F072F830
:100540000F2000F005F800F027F8002080BD000023
:1005500070B540F20006C2F2000640F2080132789F
:10056000C2F200014FF47A730968B3FBF2F2044659
:10057000B1FBF2F1084600F065FC0F2C4FF00105CD
:1005800008D838B94FF0FF3021460022002500F08E
:100590001DF87460284670BD82B041F21800C4F2A4
:1005A0000200016841F001010160016801F00101F0
:1005B00001910199416841F080514160406800F02B
:1005C00080500090009802B07047000010B54EF6C1
:1005D0000C5CCEF2000CDCF80030C3F3022E8EF07F
:1005E0000704042C28BF0424BEF103034FF0FF3E90
:1005F0000EFA04F438BF0023A14399400EFA03F326
:100600009A43114300F00F0200F160430901043ADC
:1006100003F564436244002848BF02F10C031970DB
:1006200010BD00004EF60C51CEF200010A684FF6E4
:10063000FF031A4060F30A2242F0806040F0FD7030
:10064000086070472DE9F04182B00446807841F29D
:100650001C06C007C4F202064AD0306810F0805869
:1006600008D1306840F080503060306800F0805031
:100670000190019847F20007C4F200073868C005EE
:1006800012D4386840F480703860FFF739FF0546AF
:100690003868C00508D4FFF733FF401B6428F7D93A
:1006A000032002B0BDE8F081706810F4407012D0F1
:1006B000616801F4407188420DD0706840F2404298
:1006C000C4F24222012320F4407113600023C007CA
:1006D000136071603CD17068616820F44070084319
:1006E000B8F1000F706003D1306820F080503060A6
:1006F0002068C1070AD1810610D4010616D4C004AF
:100700001CD4002002B0BDE8F08100BF7169A2686E
:1007100021F00301114371618106EED57169E26830
:1007200021F01001114371610106E8D53169226998
:1007300021F4F87111433161C004E2D57069616937
:1007400020F4807008437061002002B0BDE8F081A1
:10075000FFF7D6FE054641F2883700BF7068800774
:10076000B9D4FFF7CDFE401BB8424FF00300F5D9D6
:10077000EBE700002DE9F04381B0002877D042F28A
:100780000008C4F202080446D8F800000D4600F044
:10079000070088420CD2D8F8000020F00700284358
:1007A000C8F80000D8F8000000F00700A8425ED1A9
:1007B000206841F204098107C4F2020907D5D9F87B
:1007C0000010A26821F0F0011143C9F80010C00721
:1007D00044D1D8F8000000F00700A8420CD9D8F89E
:1007E000000020F007002843C8F80000D8F80000F7
:1007F00000F00700A8423AD12068410707D5D9F890
:100800000010E26821F4E0611143C9F8001000070C
:1008100008D5D9F80000216920F4605040EAC100F1
:10082000C9F80000D9F8002002F00C00082841F2B5
:100830000020C0F27A0051D141F6EC33C2F383417B
:10084000C0F60003595CD9F82830D2033CD440F6F6
:100850000010C0F23D00484340E000BF606802283D
:100860000AD001282AD159F8041C890308D4012090
:1008700001B0BDE8F08300BF59F8041C8901F6D52A
:10088000D9F8001021F003010843C9F80000FFF770
:1008900037FE064641F28837D9F80000616800F05B
:1008A0000C00B0EB810F94D0FFF72AFE801BB842FA
:1008B000F2D9032001B0BDE8F08300BF59F8041C51
:1008C0008907D4D5DCE700BF03F00F0241F6FC3303
:1008D000C0F600039A5CB0FBF2F04843D9F8001070
:1008E00041F6D432C1F30311C0F60002515C40F26C
:1008F000080220FA01F140F20400C2F20000006890
:10090000C2F200021160FFF723FE002001B0BDE833
:10091000F083000040F2080041F20401C2F200003E
:10092000C4F202010068096841F6E432C1F3022111
:10093000C0F60002515CC8407047000041F2040C50
:10094000C4F2020CDCF8003003F00C00082841F27D
:100950000020C0F27A0018BF704741F6EC31C3F3B3
:100960008342C0F600018A5CDCF82810DB0305D462
:1009700040F60010C0F23D005043704741F6FC3392
:1009800001F00F01C0F60003595CB0FBF1F05043D9
:10099000704700002DE9F04182B0002850D0044695
:1009A000007841F20006C007C4F202060AD070685F
:1009B00000F00C00042840F085803068800301D5E9
:1009C0006068E8B3207880071AD5706810F00C0FC3
:1009D00009D0706800F00C00082840F0A58070680D
:1009E000C00300F1A1803068800702D5206901288A
:1009F00026D13068616920F0F80040EAC10030601B
:100A00002078000720D42078400735D4E56995B1D7
:100A1000706800F00C00082840F0C280012D0FD053
:100A20007068216A00F480328A4209D1616A00F458
:100A30007010884204D1002002B0BDE8F08100BFF0
:100A4000012002B0BDE8F081A069002800F0948088
:100A50000020C4F242200121C0F88014FFF750FDAD
:100A6000054600BF706A8007CDD4FFF749FD401BE3
:100A70000228F7D91CE100BFF06910F0805808D1B6
:100A8000F06940F08050F061F06900F08050019012
:100A9000019847F20007C4F200073868C00559D42E
:100AA000386840F480703860FFF72AFD054600BFC3
:100AB0003868C0054ED4FFF723FD401B6428F7D9E2
:100AC000F6E000BF706800F00C00082803D17068E1
:100AD000C0033FF572AF6068B0F5A02F00F09480BE
:100AE000B0F5803F00F09480002840F09580306899
:100AF00020F480303060306820F480203060F06A6C
:100B0000A16820F00F000843F062FFF7F9FC0546EA
:100B1000306880037FF556AFFFF7F2FC401B642876
:100B20004FF00300F4D987E72069002840F2000065
:100B3000C4F2422056D001210160FFF7E1FC0546D6
:100B4000306880073FF555AFFFF7DAFC401B0228FD
:100B5000F6D9ADE0E068002800F07A80052800F0C2
:100B60009180012800F09280306A20F0010030620C
:100B7000306A20F004008CE00020C4F24220002102
:100B8000C0F88014FFF7BCFC054600BF706A800700
:100B90007FF539AFFFF7B4FC401B0228F6D987E098
:100BA0000027C4F2422700203866FFF7A9FC022D77
:100BB00005460BD13068800140F18880FFF7A0FC2A
:100BC000401B02284FF00300F4D935E7306880015C
:100BD0007FF531AFFFF794FC401B02284FF0030074
:100BE000F4D929E700210160FFF78AFC054600BF20
:100BF000306880077FF504AFFFF782FC401B0228B6
:100C00004FF00300F4D917E7306840F480203060DB
:100C1000306840F4803006E0306820F48030306086
:100C2000306820F480203060F06AA16820F00F0066
:100C30000843F062FFF764FC054600BF306880039C
:100C40003FF5C0AEFFF75CFC401B6428F6D92FE0EF
:100C5000306A20F001003062306A20F00400306217
:100C6000FFF74EFC054641F2883700BF306A800727
:100C700022D5FFF745FC401BB8424FF00300F5D9E1
:100C8000DAE600BF306A40F004003062306A40F0BB
:100C900001003062FFF734FC054641F2883700BF9F
:100CA000306A800708D4FFF72BFC401BB842F7D905
:100CB000032002B0BDE8F081B8F1000F7FF4A6AECA
:100CC000F06920F08050F061A0E600BF7068D4E9C0
:100CD000082120F474100843104370600120386626
:100CE000FFF70EFC044600BF306880013FF5A3AE5D
:100CF000FFF706FC001B02284FF00300F4D99BE627
:100D0000002804BF01207047B0B50446406A28B1EE
:100D10000020206104F1140006E000BF6068B0F517
:100D2000827F03D004F11C00002101600025A56230
:100D300094F85D0020B9204684F85C5000F04EF82D
:100D4000022084F85D002068D4F80CE00268BEF54B
:100D5000E06F22F0400202604EF4006298BF01256D
:100D6000B2F5706F1CBF0023A3624FEA053CD4E9C3
:100D70000135D4E9042103F4827305F404452B44BE
:100D800002F002021A44A36901F00101E56911446D
:100D900003F40072114405F03802256A114405F08D
:100DA0008002A56A114405F4005211430160042138
:100DB000626A0EF4706501EA1341636B45EA0C0543
:100DC00002F01002294303F0080311431943416064
:100DD00000200121206684F85D10B0BD80B586B08A
:100DE000006843F20001C4F20101884202D006B05B
:100DF00080BD00BF41F21400C4F20200416841F41A
:100E000080514160416801F480510191019901686C
:100E100041F400310160006801A900F40030019044
:100E20000198E0200190022002900020039003200E
:100E30000490052005904FF09040FFF775FA06B03A
:100E400080BD0000411E0020B0EB116F1CBF0120CF
:100E500070474EF21002CEF2000251604EF623515E
:100E6000CEF20001F0230B700721906011607047F3
:100E700010B590F83C20012A4FF0020237D080F8DC
:100E80003D20026842F6004C5368D2F808E0C4F2F4
:100E9000010C624503D14C6823F4700323430C68B2
:100EA00023F07003234342F6FF34C4F20104A2424C
:100EB000536009DCB2F1804F0ED040F20043C4F21F
:100EC00000039A4208D00CE044F20003C4F201038C
:100ED0009A4201D0624504D189682EF080031943FB
:100EE00091600121002280F83D1080F83C201046DE
:100EF00010BD0000002804BF012070472DE9F04F0D
:100F000081B0044690F83D00894628B9002084F855
:100F10003C00204600F0A8F8022084F83D0020683C
:100F20004BF6F8728168CFF6FE721140816001685D
:100F3000B0F1804F0BD042F60042C4F20102904261
:100F400005D040F20042C4F20002904203D1A268F0
:100F500021F07001114343F6FF72C4F20102904286
:100F600010DCB0F1804F1FD040F20042C4F200020A
:100F7000904219D042F60042C4F20102904213D0CE
:100F800016E000BF44F20002C4F2010290420BD00E
:100F900044F60002C4F20102904205D044F200423D
:100FA000C4F20102904203D1226921F4407111433D
:100FB000A36921F080011943D4F804C0E2680160FC
:100FC000A0F18041A1F596314FEAB1210729C26213
:100FD000C0F828C007D8012202FA01F111F0E10F90
:100FE0001CBF61690163012141618268D0F818E08A
:100FF000D0F820C0D9E90038D9E9027B43EA020AD7
:10100000D9F818304FF6FF722EEA020E47EA032392
:101010004FF6FC47BB43D9E907724BEA0E05D9F8F6
:1010200010602B4343EA072343EA061343EA0232E4
:101030002CF0AA03D9F8147043EA080343EA071313
:10104000C0F808A08261036284F8481084F83E105A
:1010500084F83F1084F8441084F8451084F83D105B
:10106000002001B0BDE8F08F70B586B0006840F296
:101070000041C4F2000100248842CDE90444CDE9D6
:101080000244019424D0B0F1804F58D141F21400B1
:10109000C4F20200816841F001018160816801F0C1
:1010A000010100910099016841F40031016000687C
:1010B00000F400300090009803200190022002907C
:1010C0000020CDE90300012005904FF0904033E06F
:1010D00041F21400C4F202008168102541F00201BF
:1010E00081608168022601F0020100910099016887
:1010F00041F400310160016801F400310091009970
:10110000016841F480210160006801A900F4802099
:10111000009000984FF090400195CDE90264CDE930
:101120000446FFF701F940F20040C4F60000CDE9A3
:101130000156CDE90344059601A9FFF7F5F806B07D
:1011400070BD000010B5A0B10446C06F28B90020E2
:1011500084F87800204600F027F82420E067206813
:10116000016821F001010160204600F0ABF901287F
:1011700002D1012010BD00BF606A10B1204600F00E
:1011800079F82168486820F490404860886820F029
:101190002A008860086840F0010220460A60BDE825
:1011A000104000F0DBB800002DE9F04186B0006887
:1011B00043F60001C4F20101884203D006B0BDE845
:1011C000F08100BF41F21400C4F20200416801AC9A
:1011D00041F48041416041684FF0020801F48041D0
:1011E000019101990168002641F400310160016814
:1011F000032701F40031019101990168072541F4A9
:10120000802101600068214600F48020019001984F
:101210004FF4007001904FF09040CDF80880039695
:1012200004970595FFF780F88020CDE9010840F28A
:101230000040C4F600002146CDE903670595FFF79D
:1012400073F806B0BDE8F081FEE70000FEE700009D
:10125000FEE700007047000070470000FFF756B936
:101260004EF68850CEF20000016841F47001016032
:101270007047000080B5416ACA070DD18A0716D4AD
:101280004A071FD40A0728D4CA0631D48A063AD49A
:101290004A0658D542E000BF0268D0F828C053681B
:1012A00023F4003343EA0C0353608A07E8D502684D
:1012B000D0F82CC0536823F4803343EA0C03536006
:1012C0004A07DFD50268D0F830C0536823F4802382
:1012D00043EA0C0353600A07D6D50268D0F834C03D
:1012E000536823F4004343EA0C035360CA06CDD588
:1012F0000268D0F838C0936823F4805343EA0C03A3
:1013000093608A06C4D50268D0F83CC0936823F481
:10131000005343EA0C0393604A0614D50268D0F8E0
:1013200040C05368BCF5801F23F4801343EA0C03CC
:10133000536008D1D2F804C0D0F844E02CF4C003C4
:1013400043EA0E035360090658BF80BD0168806CF4
:101350004A6822F400221043486080BDB0B582B0D4
:1013600004460020C4F88400FFF7CAF82168054647
:101370000A68120735D56FF07E4C20464FF40011F5
:1013800000222B46CDF800C000F050F940B300BF5A
:10139000206850E8000F216820F0800041E800023A
:1013A000DAB1206850E8000F216820F0800041E8A1
:1013B000000292B1206850E8000F216820F0800000
:1013C00041E800024AB1206850E8000F216820F08F
:1013D000800041E80002002ADAD12020E0675FE0C7
:1013E00021680868400761D56FF07E4C20464FF4B5
:1013F000800100222B46CDF800C000F017F900282C
:1014000054D000BF206850E8000F216820F490708D
:1014100041E80002E2B1206850E8000F216820F4A2
:10142000907041E800029AB1206850E8000F2168EE
:1014300020F4907041E8000252B1206850E8000F9B
:10144000216820F4907041E80002002ADAD100BF40
:10145000206850E8020F216820F0010041E80202F4
:10146000DAB1206850E8020F216820F0010041E85D
:10147000020292B1206850E8020F216820F00100BA
:1014800041E802024AB1206850E8020F216820F0CA
:10149000010041E80202002ADAD12020C4F88000CD
:1014A0000320002184F8781002B0B0BD2020E0674E
:1014B000C4F88000002020666066002184F878105F
:1014C00002B0B0BD10B5044601688068D4E903C31A
:1014D000626918430243D4F81CE00B6846F6F31027
:1014E000CEF6FF701840104340EA0E0008604868CE
:1014F00020F4405040EA0C004860A069226A8B68E2
:10150000104323F430621043886044F20040C4F278
:10151000000081424FF0000215D044F60000C4F2F2
:10152000000081420FD043F60000C4F20100814266
:1015300020D141F23000C4F20200006837A100F06F
:10154000030051F8202041F20020BEF5004FC0F208
:101550007A0017D1082A4FF0010100F25A80DFE823
:1015600002F005582958215858582700FFF7D2F99A
:1015700000BB1AE0102241F20020BEF5004FC0F27D
:101580007A00E7D0082A4FF0010142D8DFE802F0E4
:1015900006413041284141412E0000BFFFF7BAF912
:1015A00030BB20E0FFF7CAF920B9002131E000BFCD
:1015B0004FF4004061684A0802EB4000B0FBF1F0D4
:1015C0004FF6EF72A0F11001914207D84FF6F0717B
:1015D0000140C0F34200084415E000BF012118E0BB
:1015E000FFF7ACF920B9002113E000BF4FF4004031
:1015F00061684FF6EF7200EB5100B0FBF1F0A0F123
:101600001001914204D82168C860002101E000BFA8
:10161000012100220846A266E26610BD000000001B
:101620000400000008000000020000002DE9F04165
:10163000044600681546C2690E461140891BB1FA7E
:1016400081F14909A94227D1DDF81880B8F1000FCE
:1016500026D018F1010129D1C1693140891BB1FAA5
:1016600081F14909A94217D1C1693140891BB1FAF9
:1016700081F14909A9420FD1C1693140891BB1FAF1
:1016800081F14909A94207D1C1693140891BB1FAE9
:1016900081F14909A942DFD00020BDE8F08100BFF7
:1016A000FEF72EFF0320BDE8F08100BF1F4607E0D4
:1016B000C0693040801BB0FA80F04009A842EBD1ED
:1016C000FEF71EFFC01B404500F28E8020680168B7
:1016D0004907EDD5C169090700F18A80C16909058B
:1016E000E6D54FF400610162206850E8000F2168E0
:1016F00020F4907041E80002BAB3206850E8000F6F
:10170000216820F4907041E8000272B3206850E82C
:10171000000F216820F4907041E800022AB320688D
:1017200050E8000F216820F4907041E80002002A80
:10173000DAD11AE0206850E8020F216820F0010099
:1017400041E80202DAB1206850E8020F216820F077
:10175000010041E8020292B1206850E8020F2168BE
:1017600020F0010041E802024AB1206850E8020F6F
:10177000216820F0010041E80202002ADAD1206E3F
:10178000012824D1206850E8000F216820F01000C3
:1017900041E80002DAB1206850E8000F216820F02B
:1017A000100041E8000292B1206850E8000F216863
:1017B00020F0100041E800024AB1206850E8000F14
:1017C000216820F0100041E80002002ADAD1202030
:1017D0000021C4F880002166A166C4F884000320BB
:1017E00084F87810BDE8F0810320BDE8F08100BFE7
:1017F00008210162206850E8000F216820F49070F1
:1018000041E80002BAB3206850E8000F216820F4D4
:10181000907041E8000272B3206850E8000F216820
:1018200020F4907041E800022AB3206850E8000FCD
:10183000216820F4907041E80002002ADAD11AE011
:10184000206850E8020F216820F0010041E8020200
:10185000DAB1206850E8020F216820F0010041E869
:10186000020292B1206850E8020F216820F00100C6
:1018700041E802024AB1206850E8020F216820F0D6
:10188000010041E80202002ADAD1206E012824D1A9
:10189000206850E8000F216820F0100041E80002A5
:1018A000DAB1206850E8000F216820F0100041E80C
:1018B000000292B1206850E8000F216820F010006B
:1018C00041E800024AB1206850E8000F216820F08A
:1018D000100041E80002002ADAD12020C4F880007C
:1018E000002008212066A066C4F8841084F87800DF
:1018F0000120BDE8F0810000FEE7000096B0FEF791
:1019000013FE00240120CDE91144CDE90F440C90D1
:1019100010904FF4E0104FF48031022515900CA880
:101920000694CDE90444CDE90244CDE90D14CDE996
:101930001351FFF72FF828B1EFF3108072B600BFF4
:10194000FEE700BF0F20CDE907054FF48060CDE929
:101950000A0407A802210994FEF70CFF20B1EFF357
:10196000108072B6FEE700BF4FF00109002701A802
:10197000CDF804900397FEF765FE28B1EFF31080D1
:1019800072B600BFFEE700BF41F214001097C4F228
:101990000200016840F2004441F400210160016846
:1019A000C4F6000401F4002101910199016804F5D5
:1019B000806641F480010160016840F2004801F452
:1019C0008001019101990168002241F40031016018
:1019D0000168C4F2000801F4003101910199016825
:1019E0004FF4005541F48021016000684FF400512C
:1019F00000F48020019001983046FEF77BFD2046E0
:101A00004DF2627100224DF2627AFEF773FDCDE96C
:101A10000C590CAD30462946CDE90E77FEF784FC13
:101A200041F60C40CDE90C074FF0904029460E9747
:101A3000FEF77AFC42F60100CDE90C072046294664
:101A40000E97FEF771FC20462946CDE90CA9CDE999
:101A50000E77FEF769FC04200C900320CDE90D07FA
:101A600020462946FEF760FC40F2700008F59631EA
:101A7000C2F200004FF482724FF440734FF40076CC
:101A800080E8860007210822C0E90337C0E905760F
:101A9000C761C0E90877C0E90A71C0E90C72FFF7B5
:101AA0002FF928B1EFF3108072B600BFFEE700BF38
:101AB00040F2D4000024C2F200004FF08041C0E99F
:101AC000001401214FF0FF32CDE90C14CDE90E14C2
:101AD000CDE912140CA90294C0E9024204618461A8
:101AE000CDE910441494FFF705FA28B1EFF3108004
:101AF00072B600BFFEE700BF40F2D400C2F20000A1
:101B000001A901940394FFF7B3F928B1EFF3108012
:101B100072B600BFFEE700BF40F220100024C2F200
:101B200000004FF6FF71C0E902410121CDE90C141C
:101B3000CDE90E14CDE912140CA90294C0E9008479
:101B400004618461CDE910441494FFF7D3F928B1FE
:101B5000EFF3108072B600BFFEE700BF40F2201026
:101B6000C2F2000001A901940394FFF781F928B1A2
:101B7000EFF3108072B600BFFEE700BF40F26C10BA
:101B800008F59A31C2F2000000230C274FF41642E8
:101B900080E80E00C0E90333C0E90573C0E90733EC
:101BA0004362FFF7CFFA28B1EFF3108072B600BF9F
:101BB000FEE700BFFEF796FBFEE7F1EE100A4FF6D8
:101BC000FF71C0F2C03120EA010040F04070E1EE48
:101BD000100A70470000000000000000010203042A
:101BE00006070809000000000102030402030405BF
:101BF000060708090A0B0C0D0E0F10100102030452
:101C000005060708090A0B0C0D0E0F10301C000802
:101C10000000002010000000C4010008401C000863
:101C200010000020E8070000E001000800000000AC
:101C3000010000001000000000127A000000000007
:040000050800018965
:00000001FF
